:100000000C94702D0C94982D0C94982D0C94982D84
:100010000C94982D0C94982D0C94982D0C94982D4C
:100020000C94982D0C94982D0C94982D0C94622F70
:100030000C94982D0C94982D0C94982D0C94982D2C
:100040000C94C42E0C94982D0C94302F0C940A2FE1
:100050000C94982D0C94982D0C94982D0C94982D0C
:100060000C94982D0C94982D0C9400000C94000086
:100070000C9400000C9400000000000025002800F3
:100080002B002E0000000000240027002A002D0075
:10009000040404040404040402020202020203032E
:1000A000030303030505050505050503010204080F
:1000B00010204080010204081020010204081020D2
:1000C00002080104104020407F817F817F817E8271
:1000D0007E827D85762524323741403D36373B4C44
:1000E0004D6FC7E9F1EFE3E0DADBD9D9D7D7D4D246
:1000F000CFCCC9C7C5C3C2C1C0C0C0B6A7998C7F89
:1001000073675B4F46392C2216151A1E21232527AB
:10011000282A2C2E31333538393B3B3C4550596227
:100120006A737C848C929BA3AAB1B6BCC1C5C9CDAD
:10013000D0D4D6D4D1CECCCBC9C7C6C4C0BCB7B33B
:10014000AEA9A39D97908A837B736C645D58514AD6
:10015000453F3B3734312F2F323436383A3B3C3E23
:1001600043484D52575D62676D73787E848A8E92E4
:10017000999DA2A6AAAEB2B5B8BABDBEC0C1C1C152
:10018000C2C1C2BDB6B3B0AEABA8A4A09C97928EBC
:1001900089837E78736D68635F5954504D4A474533
:1001A0004342424242434547494C4E5255595D6194
:1001B000666A6E73787D81868A8D92979A9EA1A4D5
:1001C000A7AAACAEB0B2B3B4B4B5B4B4B4B3B1B022
:1001D000AEACAAA7A4A19D9996918D8984807B77C6
:1001E000726D6965625D595653514F4E4C4B4B4B86
:1001F0004C4D4E50525456595C5F63666A6D717532
:10020000797D8084888A8F9295989B9EA0A3A5A6CD
:10021000A8AAABACACADADADACABAAA9A8A6A5A342
:10022000A09E9B9895928E8B8884807C7875716D4A
:100230006A6765605E5C5A58565554545454545518
:100240005657595B5D5F6164676A6D707376797D3F
:10025000808386888D8F9295979A9C9EA0A2A3A456
:10026000A5A6A7A7A7A7A7A6A6A5A4A2A19F9D9B51
:10027000989693908D8A8784817D7A7774716E6B5E
:10028000696763615F5D5C5B5A59595959595A5B9B
:100290005C5E5F616365676A6C6F7274777A7D809C
:1002A0008384878B8D90929496989A9B9D9E9FA015
:1002B000A1A1A2A2A2A2A1A0A09F9E9C9B99979659
:1002C00094918F8D8A888583807D7B787673716F1A
:1002D0006C6B6966656462616160606060606061EA
:1002E0006263646567696A6C6E70727476797B7D2F
:1002F00080828386898A8D8E909293959697999A1B
:100300009A9B9C9C9C9C9C9C9B9B9A99989796944E
:1003100093918F8D8C8A888684817F7D7B79777598
:1003200073716F6E6D6B6968676766656565656536
:1003300066666768696A6B6C6E6F71727476787ADC
:100340007C7D7F81828587888A8C8D8F9091929326
:10035000949596969797979797979796969594933F
:100360009291908F8D8C8B8987868482817F7D7C12
:100370007A787775747271706F6F6D6C6C6B6B6A75
:100380006A6A6A6B6B6C6C6D6E6F6F717273747589
:1003900077787A7B7D7E7F8082848687888A8B8C43
:1003A0008D8E8F9091919292939393939393939236
:1003B000929191908F8E8D8C8B8A89888786848389
:1003C00082807F7D7C7B79787776747372727171AD
:1003D0006F6F6E6E6E6E6E6E6E6F6F70707172722A
:1003E0007374757677787A7B7C7D7E7F8182848555
:1003F000868788898A8B8C8D8D8E8E8F8F8F90903B
:10040000909090908F8F8F8E8D8D8C8B8B8A89881A
:1004100087868584838281807E7D7C7B7A797877EC
:10042000777675747473737272727171717172729E
:100430007273737474757676777879797A7B7C7D4C
:100440007E7E80818283848586878788898A8A8B5D
:100450008B8C8C8D8D8D8D8D8D8D8D8D8C8C8C8BD5
:100460008B8A8989888787868584838281807F7F3C
:100470007E7D7C7B7A7A79787877777676757575F4
:100480007574747474747475757576767777787915
:10049000797A7A7B7C7D7D7E7F8081818283848472
:1004A00085868787888889898A8A8A8A8B8B8B8BBD
:1004B0008B8B8A8A8A8989898888878786868584BA
:1004C000848382828180807F7E7E7D7C7C7B7A7A41
:1004D00079797878787777777776777776767677A9
:1004E000777778787879797A7A7B7B7C7C7D7E7E69
:1004F0007F808081828283838485858686868787C4
:100500008788888888898989898989888888888767
:100510008787868685858484838382828181807FA4
:100520007F7E7E7D7D7C7C7B7B7A7A7A7979797916
:100530007978787878787879797979797A7A7A7A2D
:100540007B7B7C7C7D7D7E7E7E7F7F8080818182C7
:10055000828383848484858585868686868787874B
:10056000878787878787878786868685858584842A
:10057000848383828281818080807F7F7E7E7E7D76
:100580007D7C7C7C7B7B7B7A7A7A7A7A7A797979C2
:100590007A7A7A7A7A7A7A7B7B7B7C7C7C7D7D7DA9
:1005A0007E7E7F7F8080808181828282838384843B
:1005B00084848585858586868686868686868686E3
:1005C00085858585858484848383838282828181F5
:1005D000818080807F7F7E7E7E7D7D7D7C7C7C7C3B
:1005E0007C7B7B7B7B7B7B7B7B7B7B7B7B7B7B7B5A
:1005F0007B7C7C7C7C7D7D7D7E7E7E7F7F7F808022
:1006000080818181828282838383838384848484C2
:100610008484848585858585858484848484848494
:100620008383838382828282818181818080807FB3
:100630007F7F7F7E7E7E7D7D7D7D7C7C7C7C7C7CE7
:100640007C7C7C7C7C7C7C7C7C7C7C7C7D7D7D7DE6
:100650007D7E7E7E7E7F7F7F7F80808081818181A5
:100660008282828283838383838383848484848459
:100670008484848484848483838383838382828246
:100680008281818181808080807F7F7F7F7F7E7E6D
:100690007E7E7E7D7D7D7D7D7D7D7D7C7C7C7C7C8C
:1006A0007D7D7D7D7D7D7D7D7D7D7E7E7E7E7E7F73
:1006B0007F7F7F8080808081818181818282828230
:1006C00082828283838383838383838383838383FD
:1006D00083838383828282828282828181818181FB
:1006E00081808080807F7F7F7F7F7E7E7E7E7E7E1A
:1006F0007E7E7D7D7D7D7D7D7D7D7D7D7D7D7D7D28
:100700007D7D7E7E7E7E7E7E7F7F7F7F7F7F808001
:1007100080808081818181818182828282828282C5
:1007200082828282838383838383838382828282A1
:1007300082828282828181818181818080808080A9
:10074000807F7F7F7F7F7F7E7E7E7E7E7E7E7E7EC1
:100750007E7E7D7D7D7E7E7E7E7E7E7E7E7E7E7EBC
:100760007F7F7F7F7F7F7F8080808080808081818E
:100770008181818181818182828282828282828260
:10078000828282828282828282828282818181814D
:100790008181818180808080808080807F7F7F7F59
:1007A0007F7F7F7F7F7E7E7E7E7E7E7E7E7E7E7E64
:1007B0007E7E7E7E7E7E7E7E7F7F7F7F7F7F7F7F51
:1007C0007F80808080808080808080818181818125
:1007D0008181818181818182828282828282828200
:1007E00081818181818181818181818181818181F9
:1007F000808080808080808080807F7F7F7F7F7FFF
:100800007F7F7F7F7F7F7F7F7F7F7F7F7F7F7F7FF8
:100810007F7F7F7F7F7F7F7F7F7F7F7F7F808080E5
:1008200080808080808080818181818181818181BF
:1008300081818181818181818181818181818181A8
:1008400081818181818181818080808080808080A0
:10085000808080807F7F7F7F7F7F7F7F7F7F7F7FA4
:100860007F7F7F7F7F7F7F7F7F7F7F7F7F7F7F7F98
:100870007F7F7F7F7F7F7F8080808080808080807F
:10088000808080818181818181818181818181815B
:100890008181818181818181818181818181818148
:1008A0008181818080808080808080808080808045
:1008B000807F7F7F7F7F7F7F7F7F7F7F7F7F7F7F47
:1008C0007F7F7F7F7F7F7F7F7F7F7F7F7F7F7F7F38
:1008D0008080808080808080808080808080808018
:1008E00081818181818181818181818181818181F8
:1008F00081818181818181818181818181808080EB
:100900008080808080808080808080808080807FE8
:100910007F7F7F7F7F7F7F7F7F7F7F7F7F7F7F7FE7
:100920007F7F7F7F7F7F7F7F7F80808080808080D0
:1009300080808080808080808080808080808080B7
:100940008181818181818181818181818181818197
:100950008181818181808080808080808080808092
:1009600080808080808080808080808080807F7F89
:100970007F7F7F7F7F7F7F7F7F7F7F7F7F7F7F7F87
:100980007F80808080808080808080808080808068
:100990008080808080808080808080808080818155
:1009A0008181818181818181818181818181818137
:1009B0008080808080808080808080808080808037
:1009C0008080808080808080808080808080808027
:1009D0008080808080808080808080808080808017
:1013C0008080808080808080808080807F7D7D7D27
:1013D0007A787779787474787D858C93989D9EA6B9
:1013E000D7DFBA956E4E34241E1E22314A6787A07D
:1013F000B3C2CED2D8E9D7B999785B43342B2A2A25
:101400004D6A7585919FA7AEAEAFBEB49E89745FDD
:101410004C4240454A56677C91A3B1BABDBAB3B9B4
:10142000BDA5866A524238363B424F6175899BA7FB
:10143000AEB2B2AFB2AA9988776A5F5956585A6469
:10144000777F868D929596969497958B8279716920
:10145000656466696E767F878F969A9B9A97989A4D
:101460009284776B625D5C5D6167707A858F959A17
:101470009C9D9B9D998F857B726B676566676D7A76
:101480008085898D8F90908E908E88817B75706D10
:101490006C6E7074797F858B8F9293929091928C01
:1014A0008379716B6867686A6F757C838A8F9193A3
:1014B000939293918A837C77726F6E6F6F747C8046
:1014C0008386888A8A8A898A8985817D79767474F7
:1014D0007576787C7F83878A8C8D8C8B8B8C8882C9
:1014E0007B76726F6E6F7174787D82878B8D8E8F35
:1014F0008E8F8D87827D797573717272767D808310
:10150000858788898988898884817D7A76757475CC
:1015100076797C8083878A8B8C8C8A8B8C88827B83
:101520007672706F707174787D82878A8D8E8E8DE1
:101530008E8C87827D797573727273767D808385D8
:101540008788898988898884817D7A777575757798
:10155000797C808387898B8C8B8A8B8B88817C7646
:1015600073706F707275797D82878A8C8D8E8D8E87
:101570008C87827D797673727373777D808385879C
:1015800088888887898884817D7A77757576777968
:101590007C808386898B8B8B8A8A8B87817C77730F
:1015A0007170717275797D82878A8C8D8D8C8D8B2F
:1015B00087827D797674737374777D80828586885F
:1015C000888887888784817D7A7776757677797C35
:1015D000808386898A8B8B898A8A87817C777371DD
:1015E00071717375797E8287898B8D8D8C8D8B86D9
:1015F000827D7A7674737474777D8082848687881E
:101600008887888784807D7A78767677787A7C80F8
:101610008386888A8B8A89898A87817C77747271AC
:10162000727376797E8286898B8C8C8C8C8B868289
:101630007D7A7675747475787D80828486878887D4
:1016400087888784807D7B78767677787A7D8083BB
:1016500086888A8A8A89898A87817C78747272727C
:1016600074767A7E8286898B8C8C8B8C8A86827D3E
:101670007A7775747575787D80828486878787868A
:10168000888783807D7B78777677787A7D8083867C
:1016900088898A8A88898986817C7875737273744F
:1016A000767A7E8286898A8B8B8B8C8A86827E7AFA
:1016B0007775757575787E8082848687878786873B
:1016C0008683807D7B78777777787A7D808386883C
:1016D000898A8988898986817C787573737375771F
:1016E0007A7E8286888A8B8B8A8B8986827E7A77BD
:1016F00076757576787E80828485868787868786EC
:1017000083807E7B79777778797A7D8083858789F6
:10171000898988888986817C787573737475777AEE
:101720007E8286888A8B8B8A8B8985827E7A787680
:10173000757676797E80828485868786868786839D
:10174000807E7B79787778797B7D808385878889AF
:101750008987888886817C797674737475777B7EB7
:10176000828588898A8A8A8A8985827E7B7876764C
:101770007676797E80828485868686868786838053
:101780007E7B79787878797B7D8083858788898866
:1017900087888885817D797674747576787B7E827A
:1017A0008588898A8A898A8985817E7B7877767619
:1017B00077797E8082848586868685868583807E0D
:1017C0007B79787879797B7D80828587888888871E
:1017D000878885817D797675747576787B7E82853C
:1017E00087898A8A898A8885817E7B7877767777E8
:1017F000797E8082838586868685868583807E7CC9
:10180000797878797A7B7D808285878888888787D0
:101810008885817D797775757576787B7E828587F9
:1018200088898989898885817E7B79777777777AB6
:101830007E8082838585868685868583807E7C7A88
:101840007978797A7B7D8082858687888787878784
:1018500085817D797775757677797B7E82858788B6
:10186000898988898884817E7B79787777787A7E80
:101870008082838485868585868583807E7C7A794F
:1018800079797A7C7E808284868788878687878537
:10189000817D7A7776757677797B7F82858788896F
:1018A0008988898784817E7B79787778787A7E8049
:1018B00082838485858585868582807E7C7A797918
:1018C0007A7A7C7E808284868787878687878481F0
:1018D0007D7A7876767677797C7F82858688888827
:1018E00088898784817E7C79787878787A7E80820E
:1018F000838485858585858582807E7C7A79797AE1
:101900007A7C7E8082848687878786868784817DAD
:101910007A7876767778797C7F82848687888888DB
:10192000888784817E7C7A787878787B7E808283D1
:101930008485858584858482807E7C7A7A797A7BA9
:101940007C7E8082848686878686868684817D7A70
:1019500078777677787A7C7F82848687888887888C
:101960008784817E7C7A797878797B7E8082838493
:1019700085858584858482807E7C7B7A7A7A7B7C6F
:101980007E8082848586878686868684817D7A7835
:10199000777777787A7C7F8284868788888788863D
:1019A00084817E7C7A797879797B7E808283848455
:1019B000858584858482807E7D7B7A7A7A7B7C7E35
:1019C0008082848586868685868684817D7B7977FC
:1019D0007778787A7C7F82848687878787878684F2
:1019E000817E7C7A797979797B7F80818384848513
:1019F0008484858482807E7D7B7A7A7B7B7C7E80FA
:101A000082848586868685858684807D7B797877C5
:101A100078797A7C7F8184858687878787868381AA
:101A20007E7C7A797979797B7F80818384848484D0
:101A300084858482807E7D7B7A7A7B7B7D7E8082BA
:101A4000848586868685858684807D7B797878788E
:101A5000797A7D7F81848586878786878683817E64
:101A60007C7B7A79797A7B7F808183838484848488
:101A7000848482807E7D7B7B7A7B7C7D7E8082837A
:101A80008585868585858583807E7B79787878795C
:101A90007B7D7F81848586878786878683817E7C20
:101AA0007B7A797A7A7C7F8081828384848484843F
:101AB0008482807E7D7B7B7B7B7C7D7E8082838439
:101AC00085868585858583807E7B7A787879797B24
:101AD0007D7F81838586868686868583817E7D7BE4
:101AE0007A7A7A7A7C7F80818283848484838483F7
:101AF00082807E7D7C7B7B7B7C7D7E8082838485F7
:101B0000858584858583807E7B7A7979797A7B7DEA
:101B10007F81838586868686868583817F7D7B7AA5
:101B20007A7A7A7C7F8081828384848483848382AE
:101B3000807F7D7C7B7B7B7C7D7E808283848585B2
:101B40008584858583807E7C7A7979797A7B7D7FAF
:101B500081838585868686868583817F7D7B7A7A6B
:101B60007A7A7C7F80818283838484838483828069
:101B70007F7D7C7B7B7C7C7D7E808283848585856C
:101B800084848583807E7C7A7979797A7B7D7F8174
:101B9000838485868685868583817F7D7B7B7A7A33
:101BA0007B7C7F8081828383848383848382807F24
:101BB0007D7C7B7B7C7C7D7F808283848585858426
:101BC000848583807E7C7A79797A7A7B7D7F818334
:101BD0008485868685868583817F7D7C7B7A7B7BF9
:101BE0007C7F8081828383838383848381807F7DE4
:101BF0007C7C7C7C7C7D7F808183848485848484E0
:101C00008483807E7C7B7A7A7A7B7C7D7F818384EF
:101C100085858585858483817F7D7C7B7B7B7B7DC2
:101C20007F8081828383838383838381807F7D7CA4
:101C30007C7C7C7D7D7F8081838484858484848496
:101C400083807E7C7B7A7A7A7B7C7D7F81838485AE
:101C5000858585858482817F7D7C7B7B7B7B7D7F89
:101C60008081828383838383838381807F7E7C7C66
:101C70007C7C7D7D7F808183848484848484848350
:101C8000807E7C7B7A7A7A7B7C7E7F81838485856B
:101C90008585858482817F7D7C7B7B7B7B7D7F804E
:101CA00081828383838383838381807F7E7D7C7C29
:101CB0007C7D7E7F8081838384848483848482800E
:101CC0007E7C7B7A7A7A7B7C7E7F81838484858527
:101CD00085858482817F7D7C7B7B7B7C7D7F808111
:101CE000828283838383838381807F7E7D7C7C7CEF
:101CF0007D7E7F8081828384848483848482807ECD
:101D00007C7B7A7A7B7B7C7E7F81838484858584DF
:101D1000858482817F7D7C7C7B7C7C7D7F808182D1
:101D20008283838383838281807F7E7D7C7C7D7DB3
:101D30007E7F8081828384848483848482807E7D8C
:101D40007B7B7B7B7B7C7E7F818384848584848595
:101D50008482807F7E7C7C7B7C7C7D7F8081828294
:101D600083838382838281807F7E7D7C7C7D7D7E78
:101D70007F8081828384848483838482807E7D7C4F
:101D80007B7B7B7C7C7E7F8182838484848484844F
:101D900082807F7E7C7C7C7C7C7D7F808182828354
:101DA000838382838281807F7E7D7D7C7D7D7E7F3B
:101DB0008081828383848383838382807E7D7C7B16
:101DC0007B7B7C7D7E7F8182838484848484838208
:101DD000807F7E7D7C7C7C7C7D7F80818282828313
:101DE0008382838281807F7E7D7D7D7D7D7E7F80FD
:101DF00081828383848383838382807E7D7C7B7BDB
:101E00007B7C7D7E7F8182838484848484838280C2
:101E10007F7E7D7C7C7C7C7D7F80818282828382D0
:101E200082838281807F7E7D7D7D7D7D7E7F8081BE
:101E3000828383838383838382807E7D7C7B7B7CA0
:101E40007C7D7E7F81828384848484848382807F7E
:101E50007E7D7C7C7C7C7E7F80818182828282828E
:101E6000838281807F7E7D7D7D7D7D7E7F8081827E
:101E70008383838383838382807F7D7C7C7B7C7C64
:101E80007D7E8081828383848484848382807F7E3C
:101E90007D7C7C7C7D7E7F80818182828282828249
:101EA0008281807F7E7D7D7D7D7E7E7F808182833D
:101EB00083838383838382807F7D7C7C7C7C7C7D29
:101EC0007E8081828383848483848382807F7E7DFD
:101ED0007D7C7D7D7E7F8081818282828282828202
:101EE00081807F7E7D7D7D7D7E7E7F8081828383FC
:101EF000838383838382807F7D7C7C7C7C7C7D7EEE
:101F00008081828383838383848382807F7E7D7DBF
:101F10007C7D7D7E7F8081818282828282828281BD
:101F2000807F7E7E7D7D7D7E7E7F808182828383B9
:101F30008382838382807F7D7C7C7C7C7D7D7E80B0
:101F400081828383838383838382807F7E7D7D7D83
:101F50007D7D7E7F80818182828282828282818079
:101F60007F7E7E7D7D7E7E7E7F8081828283838375
:101F700082838382807F7D7D7C7C7C7D7D7E808171
:101F8000828383838383838381807F7E7D7D7D7D48
:101F90007D7E7F8081818282828282828281807F37
:101FA0007E7E7D7D7E7E7E7F808182828383838232
:101FB000828382807F7E7D7C7C7C7D7D7E80818231
:101FC0008283838383838381807F7E7D7D7D7D7D0E
:101FD0007E7F8081818282828282828281807F7EF6
:101FE0007E7D7D7E7E7E7F808182828383828282EF
:101FF0008281807F7E7D7C7C7D7D7E7F80818282F0
:1020000083838383838281807F7E7E7D7D7D7D7ED1
:102010007F8081818282828282828281807F7F7EB4
:102020007E7E7E7E7F7F80818282828382828282A8
:1020300081807F7E7D7D7C7D7D7E7F8081828283AD
:10204000838383838281807F7E7E7D7D7D7D7E8094
:102050008081818182828282828281807F7F7E7E76
:102060007E7E7E7F7F808182828282828282828166
:10207000807F7E7D7D7D7D7D7E7F8081828283836A
:102080008383838281807F7E7E7D7D7D7D7E808057
:1020900081818182828282828181807F7F7E7E7E39
:1020A0007E7E7F7F80818182828282828282818025
:1020B0007F7E7D7D7D7D7D7E7F8081828283838327
:1020C00083838281807F7E7E7D7D7D7D7E80808119
:1020D000818182828281828181807F7F7E7E7E7EFD
:1020E0007E7F7F8081818282828282828281807FE4
:1020F0007E7D7D7D7D7D7E7F8081828282838382E5
:10210000838281807F7F7E7E7D7D7E7E80808181D7
:102110008182828281828181807F7F7E7E7E7E7EBF
:102120007F7F8081818282828282828281807F7EA3
:102130007D7D7D7D7D7E7F808181828283838283A0
:102140008281807F7F7E7E7D7E7E7E808081818198
:1021500082828281828181807F7F7E7E7E7E7E7F81
:102160007F8081818282828282828281807F7E7D65
:102170007D7D7D7E7E7F808181828282828282825D
:1021800081807F7F7E7E7E7E7E7F80808181818157
:10219000828181828181807F7F7E7E7E7E7E7F7F45
:1021A0008081818282828282828281807F7E7E7D26
:1021B0007D7D7E7E7F808181828282828282828119
:1021C000807F7F7E7E7E7E7E7F8080818181818117
:1021D0008181828181807F7F7E7E7E7E7E7F7F8007
:1021E00081818282828282828281807F7E7E7D7DE9
:1021F0007D7E7E7F808181828282828282828180D6
:102200007F7F7E7E7E7E7E7F8080818181818181D5
:1022100081818181807F7F7E7E7E7E7F7F7F8081C6
:10222000818282828282828281807F7E7E7D7D7DAC
:102230007E7E7F8081818282828282828281807F93
:102240007F7E7E7E7E7E7F80808181818181818193
:10225000818181807F7F7E7E7E7E7F7F7F80818186
:102260008282828282828281807F7E7E7D7D7E7E6E
:102270007E7F8081818282828282828281807F7F52
:102280007E7E7E7E7E7F8080808181818181818152
:102290008181807F7F7F7E7E7E7F7F7F8081818145
:1022A00082828281828281807F7E7E7E7E7E7E7E31
:1022B0007F8081818282828282828281807F7F7E12
:1022C0007E7E7E7E7F80808081818181818181810F
:1022D00080807F7F7F7E7E7F7F7F80808181818203
:1022E000828281828281807F7E7E7E7E7E7E7E7FF4
:1022F0008081818282828282828281807F7F7E7ED3
:102300007E7E7E7F808080818181818181818180CC
:10231000807F7F7F7E7E7F7F7F80808181818282C0
:102320008281818281807F7F7E7E7E7E7E7F7F80B4
:1023300081818282828282828281807F7F7E7E7E94
:102340007E7E7F808080818181818181818180808A
:102350007F7F7F7E7E7F7F7F80808181818282817F
:1023600081818181807F7F7E7E7E7E7E7F7F808077
:10237000818182828282828181807F7F7E7E7E7E59
:102380007E7F808080818181818181818180808048
:102390007F7F7F7F7F7F7F8080818181818281813C
:1023A000818181807F7F7E7E7E7E7E7F7F80808137
:1023B0008182828282828181807F7F7F7E7E7E7E1B
:1023C0007F80808081818181818181818080807F07
:1023D0007F7F7F7F7F7F80808181818181818181FB
:1023E0008181807F7F7E7E7E7E7E7F7F80808181F7
:1023F0008282828282818180807F7F7E7E7E7E7FDC
:1024000080808081818181818181818080807F7FC6
:102410007F7F7F7F7F8080808181818181818181B9
:1024200081807F7F7E7E7E7E7E7F7F8080818182B5
:1024300082828282818180807F7F7E7E7E7E7F809D
:10244000808081818181818181818080807F7F7F87
:102450007F7F7F7F80808081818181818181818177
:10246000807F7F7E7E7E7E7E7F7F80808181818275
:10247000828182818180807F7F7F7E7F7F7F80805D
:102480008081818181818181818080807F7F7F7F48
:102490007F7F7F8080808181818181818181818036
:1024A0007F7F7E7E7E7E7E7F7F8080818181828233
:1024B0008182818180807F7F7F7E7F7F7F8080801F
:1024C00081818181818181818080807F7F7F7F7F09
:1024D0007F7F808080818181818181818181807FF6
:1024E0007F7E7E7E7E7F7F7F8080818181818181F2
:1024F00081818180807F7F7F7F7F7F7F80808081DF
:10250000818181818181818080807F7F7F7F7F7FCA
:102510007F808080818181818181818181807F7FB5
:102520007F7E7E7E7F7F7F808081818181818181AE
:10253000818180807F7F7F7F7F7F7F80808081819E
:102540008181818181818080807F7F7F7F7F7F7F8C
:10255000808080818181818181818181807F7F7F75
:102560007E7E7E7F7F7F808081818181818181816C
:102570008180807F7F7F7F7F7F7F8080808181815E
:1025800081818181818080807F7F7F7F7F7F7F804D
:102590008080818181818181818181807F7F7F7E37
:1025A0007E7F7F7F7F808081818181818181818128
:1025B00080807F7F7F7F7F7F7F808080808181811F
:1025C000818181818080807F7F7F7F7F7F7F80800E
:1025D00080818181818181818181807F7F7F7F7FF7
:1025E0007F7F7F7F808081818181818181818180E6
:1025F000807F7F7F7F7F7F7F8080808081818181DE
:102600008181818080807F7F7F7F7F7F7F808080CE
:10261000818181818181818181807F7F7F7F7F7FB7
:102620007F7F7F80808181818181818181808080A5
:102630007F7F7F7F7F7F7F8080808081818181819C
:1026400081818080807F7F7F7F7F7F7F808080818E
:102650008181818181818181807F7F7F7F7F7F7F79
:102660007F7F808081818181818181818080807F65
:102670007F7F7F7F7F7F808080808181818181815A
:10268000818080807F7F7F7F7F7F7F80808081814E
:102690008181818181818080807F7F7F7F7F7F7F3B
:1026A00080808081818181818181818080807F7F24
:1026B0007F7F7F7F7F808080808181818181818118
:1026C0008080807F7F7F7F7F7F7F8080808181810E
:1026D00081818181818080807F7F7F7F7F7F7F80FC
:1026E000808081818181818181818080807F7F7FE5
:1026F0007F7F7F7F808080808181818181818180D7
:1027000080807F7F7F7F7F7F8080808081818181CB
:10271000818181818080807F7F7F7F7F7F7F8080BC
:102720008081818181818181818080807F7F7F7FA5
:102730007F7F7F8080808081818181818181808095
:10274000807F7F7F7F7F7F8080808081818181818A
:102750008181818080807F7F7F7F7F7F7F8080807D
:1027600081818181818181818080807F7F7F7F7F66
:102770007F7F808080808181818181818080808055
:10278000807F7F7F7F7F8080808081818181818148
:1027900081818080807F7F7F7F7F7F7F808080813D
:1027A000818181818181818080807F7F7F7F7F7F28
:1027B0007F80808080808181818181808080808015
:1027C0007F7F7F7F7F808080808081818181818108
:1027D000818080807F7F7F7F7F7F7F8080808181FD
:1027E0008181818181818080807F7F7F7F7F7F7FEA
:1027F0008080808080818181808180808080807FD6
:102800007F7F7F7F808080808081818181818181C5
:102810008080807F7F7F7F7F7F7F808080818181BC
:1028200081818181818080807F7F7F7F7F7F8080A9
:1028300080808080818181808180808080807F7F96
:102840007F7F7F8080808080818181818181818084
:1028500080807F7F7F7F7F7F7F808080818181817B
:1028600081818181808080807F7F7F7F7F80808069
:10287000808080808180808180808080807F7F7F59
:102880007F7F808080808081818181818181808043
:10289000807F7F7F7F7F7F7F80808080818181813B
:1028A000818181808080807F7F7F7F7F808080802A
:1028B0008080808080808180808080807F7F7F7F1B
:1028C0008080808080808181818181818180808001
:1028D0007F7F7F7F7F7F7F808080808181818181FA
:1028E0008181808080807F7F7F7F7F8080808080EB
:1028F00080808080808080808080807F7F7F7F80DC
:102900008080808080818181818181818080807FC1
:102910007F7F7F7F7F7F80808080818181818181B7
:1029200081808080807F7F7F7F7F808080808080AB
:10293000808080808080808080807F7F7F7F80809B
:1029400080808080818181818081818080807F7F83
:102950007F7F7F7F7F808080808181818181818175
:10296000808080807F7F7F7F7F808080808080806C
:10297000808080808080808080807F7F7F8080805A
:10298000808080808181818081818080807F7F7F45
:102990007F7F7F7F80808080818181818181818034
:1029A0008080807F7F7F7F7F80808080808080802C
:1029B0008080808080808080807F7F808080808019
:1029C0008080808181818081808080807F7F7F7F07
:1029D0007F7F8080808080818181818181808080F3
:1029E00080807F7F7F7F7F808080808080808080EC
:1029F00080808080808080807F7F808080808080D9
:102A00008080818180808080808080807F7F7F7FC8
:102A10007F808080808080818181818180808080B2
:102A2000807F7F7F7F7F80808080808080808080AB
:102A30008080808080808080808080808080808096
:102A400080808080808080808080807F7F7F7F7F8B
:102A50008080808080808181818181808080808071
:102A6000807F7F7F7F80808080808080808080806A
:102A70008080808080808080808080808080808056
:102A8000808080808080808080807F7F7F7F7F804B
:102A90008080808080818181818180808080808031
:102AA0007F7F7F7F8080808080808080808080802A
:102AB0008080808080808080808080808080808016
:102AC0008080808080808080807F7F7F7F7F80800B
:102AD00080808080808181808180808080808080F3
:102AE0007F808080808080808080808080808080E7
:102AF00080808080808080808080808080808080D6
:102B000080808080808080807F7F7F7F7F808080CA
:102B10008080808081808080808080808080807FB5
:102B200080808080808080808080808080808080A5
:102B30008080808080808080808080808080808095
:102B4000808080808080807F7F7F7F808080808089
:102B50008080808080808080808080808080808075
:102B60008080808080808080808080808080808065
:102B70008080808080808080808080808080808055
:102B8000808080808080807F7F7F80808080808048
:102B90008080808080808080808080808080808035
:102BA0008080808080808080808080808080808025
:102BB0008080808080808080808080808080808015
:102BC0008080808080807F7F808080808080808007
:102BD00080808080808080808080808080808080F5
:102BE00080808080808080808080808080808080E5
:102BF00080808080808080808080808080808080D5
:102C000080808080807F7F808080808080808080C6
:102C100080808080808080808080808080808080B4
:102C200080808080808080808080808080808080A4
:102C30008080808080808080808080808080808094
:102C40008080808080808080808080808080808084
:102FB0008080808080808080808080808080808110
:102FC0007F817F81887D827D867A817E8974897FF9
:102FD000768D7A827F837B857E847A8A76858182EC
:102FE0007D7C89778A79867B837D83827F798783DD
:102FF000808187837E907A877F8576878077887EB9
:10300000788A7A7E8C7C8F7C88758E7C75877B79BC
:1030100081807585798677817D897B8578837F76C8
:1030200088708E7583807A807E7A87777C7B837EBA
:10303000758E798479837887807885797F81807EA1
:103040007D857B84807B8478887B848183847D807C
:10305000837D8575858678887B807E7E7E82808470
:103060007A8D7B867E827D817C8084788879857963
:10307000837D837787738B7C8C768481718E728954
:10308000708D72897D847D837C857E7F8775867B4C
:103090008977857A8676887B857E7F837F817F802E
:1030A0007D8678867A8479867D8182818180827E20
:1030B000847E827F7F81827C817E837E807F837E0F
:1030C000817E8083778A7C7E867C847F7F807E83FE
:1030D0007C8180807E7F7D867E817D81837D827DF7
:1030E0008875877E847E817F81807C887A847E86D5
:1030F0007B857C847A897F7D89768B76897E7F84C7
:103100007E81837D857C858277897C867B857B85B6
:103110007F7E847D8480818080817F808478897CAB
:10312000827E84817E857C8280827F827D85788795
:103130007A857F7F817E867C847F827D867A867E8B
:103140007E81857A84827B827F857C837F7F837F7B
:1031500082817B857D847E837E817E83827D847F68
:103160007F80817F7F818379887B837F817F827F5E
:10317000827E82817C867A847C837D827E827F804F
:103180007D857D807F80807B867C837C847D827F43
:10319000827C837E7F827F8080807D867B847D832E
:1031A0007F81807F81807F80817E8280808080801F
:1031B000807E837C81807F808180808080807E8310
:1031C0007C837E7F827D817F80817C837E7F817E08
:1031D000827E827E81807E817F7F7F81807C8280F3
:1031E0007E80817E81807C847E817F80817E817FE4
:1031F0007F827D80837B847C837E7F817F817E81D3
:103200007F827D827C857D8080817E827F7C857BC4
:10321000837F807E837D8280827D82817E808080AC
:103220007E847B867D81807F807F7F837D7F8180A0
:103230008080817E837E817E827D8280817E827E8F
:1032400080827E807F827D837E817E827E837F807E
:103250008080807F817F8080807F8180807F817E71
:10326000827E837C837F80817F8080827C837F825B
:103270007E837B857D818080817E827F817F827D50
:10328000827D847C847E7F837E817F817E817F813D
:103290007F817F8080817F817D847F7F827D837E2F
:1032A00081807F818080807F817E827E80827F811D
:1032B0007F817F808080807F807F81807F81808010
:1032C00080808080807F817F7F817E817F7F817F02
:1032D000817F817F80807F8081807F8080817F80EF
:1032E00080818080817F81808080808080817F80DC
:1032F000808081808080808080817F807F808080CE
:103300008080817F808080808080817F817F817FBD
:1033100081807F807F817E827F817F8080817F81AD
:103320007F8080808080807E827E817E837E81809F
:10333000807F808080807F817F81808080807F828D
:103340007E827F817F80808080807F81817F817F7E
:103350008180817F827F817F817F8080808080806B
:1033600080817F817E827E80817F808180807F825C
:103370007F80817F817F827E817F81808080817F4D
:103380008180808080817F827E817F827E8180803B
:10339000807F81808080807F827E817F817F81802D
:1033A0008080808080817F81808080827F8080801B
:1033B0008080807F8180808080808080808080800D
:1033C0008080817F80817F817F80818080808080FC
:1033D0007F81808080808080817F808080808080ED
:1033E0008080808080808080808080817F808080DD
:1033F0008080808080808080808080808080817FCD
:1034000080808080808081808080808080817F81BA
:10341000808180808080808080808080807F817FAC
:1034200080807F80817F8080817F8080808080809D
:10343000808080817F817F8080808080808180808B
:103440008080807F8080807F818080808080817F7D
:10345000817F808080808080808080807F817F806D
:103460007F817F8180808080817F8180808080805B
:103470008080807F818080817F80808080817F804C
:1034800080808080808080808080807F818080803C
:1034900080818080817F808080808080808080802B
:1034A00080808080807F808080808080808080801D
:1034B000808080808080808080808080817F80800C
:1034C00080808080808080808080808080808080FC
:1034D00080808080807F817F8080808080808080ED
:1034E00080808080808080808080808080808080DC
:1034F0008080808080808080807F808080808080CD
:1035000080808080808080808080808080808080BB
:103510008080808080808080807F818080808080AB
:10352000808080808080808080808080808080819A
:103530008080808080808080808080808080807F8C
:10354000817F817F8080808080808080808080807B
:103550007F8080808080808080808080808080806C
:103560008080807F817F808080808080808080805C
:103570008080808080807F817F808080807F81804C
:103580008080808080808080817F8080808080803B
:10359000808080808080808080808080808080802B
:1035A000808080808080808080808080808080801B
:1035B000808080808080808080808080808080800B
:1035C00080808080808080808080808080808080FB
:1035D00080808080808080808080808080808080EB
:1035E00080808080808080808180808080808080DA
:1035F00080808080808080808080808080808080CB
:1036000080808080808080808080808080808080BA
:1036100080808080808080808080808080808080AA
:10362000808080808080808080808080808080809A
:103B9000808080808080808080807F827C837F7C2A
:103BA0008B5B6D8A7E9D95798E8280817996A081CE
:103BB00077827B817785727E798D6761B08D7A7A25
:103BC0008678836A8C8779A49077817A78827984E1
:103BD000787D7C876EA193789AA1A0797B777D7F91
:103BE000807A7A7D797C7E797B7C7E76827A7A7C1B
:103BF0007E7B7B84777F7C7C7D7C7A7D7D837486F5
:103C00007C80817A807A8577827C7F7B817C8280D0
:103C10007F807D8380817C837E847B7F7E7F7B80B1
:103C20007D7D837C7E7E7F7D807E7F7D817B7E82AD
:103C3000817F807B847A827E7E847A837C817E8190
:103C40007F807E817D837D807F817F7E837C837D7D
:103C5000837E827E8080817F7F837D81817F818161
:103C60007F8180817F81808080817E837F81808051
:103C7000817F827F8080827E827F817F817F82813F
:103C8000808180817F837E827F827F80827F817F2F
:103C9000837F82827D83817D848081808181808118
:103CA000808081817F837F81817F8181817E81810D
:103CB00080818180818081808280818180818081FA
:103CC00080808180818180818081808181808080ED
:103CD0008080817F818080818081808081808180DF
:103CE00081808180818080818081808180818081CC
:103CF0007F8180808080808081808080817F827FC2
:103D0000818081817F818081808080807F7E7D7CB9
:103D10007A79787777767676757674757574757541
:103D2000757475757575757576757676767777773A
:103D3000787879797A797A797B7B7A7B7B7D7B7EDF
:103D40007B7F7C7F7B817D827D827E837F8382827D
:103D50008382848188808A7E8E7C917B9479957A17
:103D600092808C8A7D9E69B159BB5CAD7B80AD53DE
:103D7000CB4FAF876BBF59A09F55C86B7CC0549F7A
:103D8000AC50B19F51BC9655BA9D51B5AB51A1C134
:103D90005981D0785DC5AB4F92D37757BCBF58706F
:103DA000CFBC5F7AD2B76482D1BA6D7ECBC07C7152
:103DB000BCC893679CCAAF756FB4C19E657AB7BA29
:103DC000936174B0B69362649FB4996B537EA9A15A
:103DD0007D545486A193724C4D79968D7249395514
:103DE000828B7C5934345A8182724C2B2E557B7EC7
:103DF00070502C26426C7D76633F262B4A6F7B7673
:103E000065442B2B42667B7B715A3C2F36506F806A
:103E10007F78644938394A667E85837B664E4141A6
:103E20004E667E898A877A64524A4C596F848F9293
:103E3000928978665A5558667A8D979C9D978A7AAA
:103E40006C636166758797A1A7A9A69C8E80746D27
:103E50006B717F8F9EA8AFB3B2ACA093867C757355
:103E6000778291A0ABB4BABEBCB6AC9F93887F7A80
:103E70007B808B98A5B0B9BFC3C3BFB6ACA0948AF2
:103E8000817C7B7F87939FABB5BEC4C8C9C7C1B8CF
:103E9000ADA1968B837D7A7B8089939FA9B3BBC1AB
:103EA000C6C8C7C3BCB3A89D92887F777372747964
:103EB000818B96A1ABB4BDC4CAC8C6C3C1BFBDBACD
:103EC000B2A69A8F857C75716F6F72777D848B92A5
:103ED000989EA3A5A3A19F9D9B9A978F83786C60C2
:103EE000554B423A34312F3032363C434A51585FB9
:103EF000656B70747778797774706A635C534A4144
:103F0000382F28211B17141415171B20272E363E77
:103F1000464F575F666C72777B7E7F807F7D7A75B8
:103F2000706A645D564F48423C36322F2D2F313334
:103F300035373A40474F576069727A838A92999F22
:103F4000A4A9ACAFB1B1B1AFADAAA5A19B958F8823
:103F5000817B746E68635E5B585554545556595C4A
:103F600061666C727980878F969DA4ABB1B6BCC038
:103F7000C4C8CACCCECECECDCCC9C7C3BFBBB6B1E8
:103F8000ACA6A19B95908B86817C7875726F6D6CC9
:103F90006B6B6C6D6F7174777B7F84888D92989D4D
:103FA000A2A7ACB1B5B9BDC1C4C7C9CBCDCECECF28
:103FB000CECDCCCBC9C6C3C0BDB9B5B1ADA9A5A145
:103FC0009C9894918D8A8683817E7C7B79787776A4
:103FD000767676767778797A7B7C7D7F808183842C
:103FE00085868788898A8A8B8B8B8A8A8989888645
:103FF000858482807E7C797774716F6C696663607A
:104000005D5A585552504D4B4947454341403F3EFC
:104010003D3D3C3C3C3C3D3D3E3F414243454749A4
:104020004B4D50525457595C5F616466696B6E70BA
:10403000727476787A7C7E7F818283858686878893
:1040400088888989898988888887878685858483FF
:104050008281807F7E7E7D7C7B7A797878777676A8
:104060007575747474747474747474757576767705
:1040700078797A7B7C7D7E7F808283848687888A3C
:104080008B8C8E8F91929394969798999A9B9C9DE6
:104090009D9E9F9FA0A0A1A1A1A1A1A1A1A1A1A11D
:1040A000A1A0A09F9F9E9D9D9C9B9A999998979651
:1040B0009594939291908F8E8D8C8B8A8988878727
:1040C000868584838382818180807F7F7E7E7E7DE2
:1040D0007D7D7D7D7D7D7D7D7D7D7D7D7D7D7D7E0F
:1040E0007E7E7E7F7F7F7F808080808181818182D4
:1040F0008282828283838383838383838383838394
:10410000838382828282828181818080807F7F7EA0
:104110007E7E7D7D7C7C7B7B7A7A797978787877F6
:104120007776767575757474747373737272727250
:10413000727171717171717171717171717171716E
:104140007172727272737373737474757575767637
:1041500076777778787879797A7A7A7B7B7C7C7CC9
:104160007D7D7E7E7E7F7F7F808081818181828256
:1041700082838383838484848484858585858585FF
:1041800085858686868686868686868686868686D1
:1041900086868686868686868686868686868686BF
:1041A00086868686868686868686868686868686AF
:1041B000868686868686868686868686868686869F
:1041C000868686868686868686868686868686868F
:1041D0008686868686868686868686858585858584
:1041E0008585858584848484848483838383838292
:1041F000828282828181818181808080807F7F7FB5
:104200007F7E7E7E7E7E7D7D7D7D7D7D7C7F817FD0
:10421000817EBCB491671930436090AE8BBBBEAB5E
:104220009C6041436848A5AFA7AC9D905A4B44772A
:1042300081B7AD958F6F6C778E746C848F87977113
:104240006D7E73798E988F85787976777B857D7E84
:104250008696847E747C857D817B867E777C827E5B
:104260008082878686837D7C7C7B80807E7D818248
:104270008581847D7C797D80828681837F85778539
:104280007191446EBD729BBD7C53798384668C8929
:10429000755D767F8DB2AB685B5158A893C9B781C5
:1042A0004E5561567D9490909A82856E718D8D8B5E
:1042B000817D867A5C728993916E728D86737B8E16
:1042C0008376918774767C7C907C6A7E757B8D99F1
:1042D0007D808B82746F7484847A8384847B8783EB
:1042E0007F7B797A7A82828785827E797C797D7EEE
:1042F00083808082807B817F7F817D8381878180B5
:10430000797D7B897C842F738037C0EAD46D8148A6
:10431000335B84B89A8B71A29D8B9040466970C0C4
:10432000B1A58B6767526E6869A5BCBC966351776F
:104330007D7D8A708178887E89B387866F6F796882
:10434000828790888C7776867E88908575756B835A
:104350008E8E85977C63494B7696E6ADAFAC3B2657
:10436000699884A2B694783D6C837EBA91676B8815
:104370008F5C9274559580A6B1C37F462E118BC178
:10438000C2D994706A5E597CA09D967B5746607C2A
:10439000B5A58DB5684D977DAE6D7B8441635DA3FA
:1043A000A374ABBD416F7F6F617DB599919CBB6C70
:1043B0006D3B324856D4D394A17C758E4777984F85
:1043C00086AE9AA4583D52778FBFC24E837BAAA86F
:1043D0005B58146A9994838BC4BBB684367C7C6129
:1043E0006B66817F817F808081899AB8C0BFB0BFB2
:1043F000637AAA241F2D2D2735363F444853506237
:10440000529C915E6A877D9FB2896EAEF8BBA2C551
:10441000E7C8D9DBCCC3C7C9BDBDAAB7AAAB9D82CB
:104420006B318351202C406C303F3F46516E6557B5
:1044300082B77E76898EA572BAC7898FC6BEA8B4A8
:1044400094ACC9B2A6B19B8697A0826451525337EF
:1044500033252B635A34213738524C51A56F88933A
:1044600079918D999B86A6B4A1A39F9AA77C9DADB7
:1044700088815AA49B7A62615A5845356E58274BF9
:1044800056373942454A5F65615C939B7B887C82E5
:10449000C9AA819BB3889BBEAD8F7EB79EA9908031
:1044A00089846A889457665E7A5A5A72475A6F743A
:1044B0005E547E666B987F8489848BB1A89981A4B1
:1044C000C5959B918EA8A0978E839F9476798C68D2
:1044D00064867A745F656466646765657E647B6321
:1044E0008397846896AB8B8F7ABE8EA5A2958AAF90
:1044F000998C9A83A77F886F907D7C7C6472706FA3
:10450000636A555A8C6B4583716B5F6A90608E8FBE
:104510007E8A87928F979599989189B997938A8483
:104520009C879688876487937569628B7F56777AB4
:104530006B636E7E69756D74817F83778D8576A0E0
:104540008A8A968E9292948E9482879A8A7D7C949F
:104550007D7A887B7C6E706E8278687563708B71F3
:1045600073736D8979848670939683898A8E908F10
:10457000938E958C968182A5977286937E7B6990A7
:10458000837279717B66798061807C7E65797F74C6
:10459000817D8A7E7C7A9A878788898B90887D99AD
:1045A0009188938B837A818F7C80737A8A79796BF7
:1045B0007D81667C856A6F887A767B7A807E83824D
:1045C0008585878A7D8D9C82828D8B997E8B91815A
:1045D00084818285777597807676787C766D808009
:1045E000717B6B807F718A797E7881887A8E7694F0
:1045F0008482998387858887878785877B83947E54
:1046000080708585777C757D6D7D7E7480777D7407
:104610007D76748B7F7D78857A8B8682898C898282
:10462000817C96818C867A8194837F7B77907C7A5B
:1046300076867D76757F7D7783786D8188767D7AC5
:10464000817D837E867B7D8D898C7B888C81877B39
:104650008190828377848D7D7583827B856F7E8157
:10466000707F82767B78777C837D7D7876907E788C
:104670008586848379819381838284838384838301
:1046800081827F8081817584827A7D7C7A79777F4F
:104690008274847F76837E787B88837D817B858826
:1046A000807B8B878182837F7D8C87817E807F80EA
:1046B0007F7F7E7E7E7979837D817F7B7B7A7D782B
:1046C0007D86797B8578868485817886877F8380DF
:1046D000857F7B8F84818280817F81807B7D847ECA
:1046E0008481797D7580817B7B7E7C80787F867EEE
:1046F0007D7787857D7D8981808182828381837FAB
:104700007B8B86817E807F817B7D857E7E827682AB
:104710007C7F7C7F7C797F7D857A837C81817D80B5
:104720007D7E897D7F88837E7E8484847C867F8471
:10473000807F7C80807C867D827C7A7E82827B7B8F
:104740007E7E7E7E7F7D7A8285857D7E8180818072
:1047500082807F81897E8086837A8185807E7B8549
:10476000817C7C857F7D7E7D7F7C788781797F825F
:10477000807E7A8084807E7B87827F8180827F7B3F
:104780008A857F817F837B82877E7E7D7F8682781C
:104790007E847B847D7E7A7E807C857F7C7E827D2C
:1047A00081857F7F807F7F8086827E847D7F8480FD
:1047B000857C81837F807B8284807E7F7E807E80FB
:1047C0007982807E837D7E7B8083837C7F818080F5
:1047D000807C848282847E817F818081817E7D85D0
:1047E00085807D7B85817E7F7F7F7F7F7F7F7F7FD1
:1047F0007F7F7F807F807F808080808180817C82BE
:10480000867F8480808081807C85867A8184817C9B
:104810007F837E7F7E807D82807F7D7D84837F7F9E
:104820007E7E827E81827E81827E81808183817F85
:10483000817D81857B85827F807F80807F81808074
:10484000827C81817E7F7E7D808182807E7E7E8271
:10485000827F8080807D83827F817E837E81847F52
:10486000808080847D8182807E7D8181827F7F7F48
:10487000817C847E80827F7F7F7F7D84808080803A
:10488000808080817D8085827F80808180817C8125
:1048900086807F7F807E82807F7F7F808081808115
:1048A0007E807D81817D828180808080808080800B
:1048B00081808180827E7F857E82817E7E838180F1
:1048C000827D80827C80847D7F83807F7F7F807FEC
:1048D000807F817F7F83817F7E837E83817F8080D5
:1048E0007F7D83828080827F807F808080808080C7
:1048F0007D8381807D7F847C80837F7F7E81817FBB
:10490000807E7F8480807F808080808180817F7EA8
:104910008480817F81817E7F83817F7F7E81828091
:104920007F807F817E817F837F7F82807F7F838086
:10493000807D82818280807E808280837F807F8074
:104940008080808080817F7F83807F7F82807F8165
:104950007F8081817E7F827E827F818180827E8056
:1049600081807E818080827F7E81827E80827F7F47
:10497000817F80818080827F7E8181807F80808036
:10498000807E818180807E8082808080827F7F8225
:104990007F817F8081817F80807F827F81817F7F17
:1049A000807F80817F80808080807E818280807F08
:1049B000808080807F8280818080808080808080F5
:1049C0008080807F80827E808180817F80808080E7
:1049D000808080807F7E83807E827F7F82808080D7
:1049E00080807F808080818181807E80837F7F81C5
:1049F0007F808181807F807F8081818080807F80B7
:104A00008081807E8181807F7F817F818080807FA7
:104A1000827F80807F8081807F8181807F81818093
:104A2000808080807F808180817F80808080808086
:104A30008081817F80818080808080807F7F818174
:104A40008080808081807F8081807F808180808065
:104A500080808180807F8081808080807F80808056
:104A60008080808080808080808080818080808045
:104A70008080808080807F80808080808080808037
:104A80008080808080808080808080808080808026
:104A90008080808080808080808080808080808016
:104AA0008080808080808080808080808080808006
:104AB00080808080808080808080808080808080F6
:104DD000808080808080808080808080803A3A528D
:104DE0005455483E322A2A3D3838373C444F5A669B
:104DF000727E8B96A2ACB7C0C9D1DAE1E9EEF4F7C6
:104E0000FAFCFDFDFCFBF8F5F2EEE8E3DCD4CBC2E6
:104E1000B8ADA2968B8279726B655F5A55514D4938
:104E200045423F3C3A3836343231302F2E2D2D2D2D
:104E30002C2C2C2C2C2D2D2E2F3031323335363876
:104E40003A3B3D40424446494C4E5154575A5E61AC
:104E500065696D7175797E82878B90959A9EA3A8FE
:104E6000ADB2B6BBBFC4C8CCD0D4D8DCDFE2E5E875
:104E7000EAECEEF0F1F3F3F4F4F4F3F3F2F1EFED26
:104E8000ECEAE7E5E2DFDCD9D6D3CFCCC8C4C1BDBC
:104E9000B9B5B1ADA9A5A09C9894908C88837F7B6F
:104EA00077736F6C6864605D5956524F4C49464346
:104EB000403D3A383533302E2C2A2826252322200F
:104EC0001F1E1D1C1C1B1B1A1A1A1A1A1A1B1B1C2C
:104ED0001D1D1E202122242527282A2C2E30333563
:104EE000373A3C3F4144474A4D505356595C606302
:104EF000676A6E7175797D81868A8E93979BA0A46F
:104F0000A9ADB2B6BABFC3C7CBCFD2D6DADDE0E324
:104F1000E6E9EBEDEFF1F2F3F4F5F5F5F5F4F4F382
:104F2000F1F0EEECEAE7E5E2DFDCD9D6D3CFCCC88E
:104F3000C5C1BEBAB6B2AFABA7A3A09C9894908DE2
:104F40008985817E7A7773706C6966625F5C595679
:104F500054514E4C49474442403E3C3A3837353430
:104F60003231302F2E2D2D2C2B2B2B2B2B2B2B2B73
:104F70002B2C2C2D2E2F30313233343637393A3C0E
:104F80003E40424446484A4C4E50525557595C5E4A
:104F9000616366696B6E717376797B7E81848689C5
:104FA0008C8F9295989B9DA0A3A6A9ACAEB1B4B6E8
:104FB000B9BBBEC0C2C4C6C8CACBCDCECFD0D1D279
:104FC000D2D3D3D3D3D2D2D1D0CFCECDCCCAC9C7EE
:104FD000C5C4C2C0BEBCBAB8B5B3B1AFACAAA8A56F
:104FE000A3A19E9C99979592908D8B888684817FB2
:104FF0007D7A787674726F6D6B6968666462605FE3
:105000005D5B5A58575554535251504F4E4D4C4B6F
:105010004B4A4A4949484848484848484848494905
:105020004A4A4B4B4C4D4E4F4F5051535455565787
:10503000595A5B5D5E606163646668696B6D6E7032
:1050400072747577797B7C7E8082848587898B8C6E
:105050008E9092939597999A9C9E9FA1A2A4A5A7A2
:10506000A8AAABACADAEB0B0B1B2B3B4B4B5B5B53F
:10507000B5B6B6B6B5B5B5B4B4B3B2B2B1B0AFAEFD
:10508000ADACAAA9A8A7A6A4A3A2A09F9D9C9A99EB
:105090009796949391908E8C8B8988868483818057
:1050A0007E7D7B7A787775747371706F6D6C6B6AC7
:1050B000696766656463636261605F5F5E5D5D5CD6
:1050C0005C5B5B5B5A5A5A5A5A59595A5A5A5A5A3D
:1050D0005A5A5B5B5B5C5C5D5D5E5F5F60616162F9
:1050E000636465666768696A6B6C6D6E6F70717218
:1050F00074757677787A7B7C7D7E808182838486E6
:105100008788898A8B8C8E8F9091929394959697AD
:105110009899999A9B9C9D9D9E9F9FA0A0A1A1A2BA
:10512000A2A2A2A2A2A2A2A2A2A2A2A1A1A1A0A066
:105130009F9F9E9D9D9C9B9B9A99989796969594D0
:10514000939291908F8E8D8C8B8A898887868584A7
:10515000838281807F7E7D7C7B7A79787777767594
:105160007473727271706F6F6E6D6D6C6B6B6A6A57
:1051700069696968686767676766666666666666BE
:1051800066666666666667676767686868696969AC
:105190006A6A6B6B6C6C6D6E6E6F6F70717172732F
:1051A00074747576777778797A7A7B7C7D7E7E7F6A
:1051B000808181828384848586878788898A8A8B97
:1051C0008C8C8D8D8E8F8F909091919292939393E2
:1051D0009494949595959596969696969696969679
:1051E0009695959595959494949393939292919185
:1051F00090908F8F8E8E8D8D8C8B8B8A8A898888EC
:105200008786868584848382828180807F7F7E7D7D
:105210007D7C7B7B7A7A797878777776767575740A
:105220007474737372727271717170707070706F68
:105230006F6F6F6F6F6F6F6F6F6F6F6F6F6F6F6F7E
:105240006F70707070707171717272727373737449
:105250007474757576767777787879797A7A7B7BD6
:105260007C7C7D7D7E7E7F7F808081818282838346
:1052700084848585868687878788888989898A8ABC
:105280008A8B8B8B8C8C8C8C8D8D8D8D8D8E8E8E58
:105290008E8E8E8E8E8E8E8E8E8E8E8E8E8D8D8D31
:1052A0008D8D8D8C8C8C8C8B8B8B8A8A8A8A89894C
:1052B0008888888787878686858585848483838296
:1052C0008282818180807F7F7F7E7E7D7D7D7C7CF0
:1052D0007B7B7B7A7A7A797979787878787777773F
:1052E0007776767676767675757575757575757566
:1052F000757575757575757575757575757676765B
:105300007676767777777777787878787979797A23
:105310007A7A7B7B7B7B7C7C7C7D7D7D7E7E7E7FC9
:105320007F7F808080818181828282838383848465
:10533000848585858586868686868787878787880C
:1053400088888888888888898989898989898989D4
:1053500089898989898989888888888888888888C6
:1053600087878787878786868686868585858584DD
:10537000848484838383838282828281818180800A
:1053800080807F7F7F7F7E7E7E7E7D7D7D7D7C7C3D
:105390007C7C7C7B7B7B7B7B7B7A7A7A7A7A7A7A61
:1053A0007A7979797979797979797979797979796C
:1053B0007979797979797979797A7A7A7A7A7A7A56
:1053C0007A7B7B7B7B7B7B7C7C7C7C7C7C7D7D7D22
:1053D0007D7D7E7E7E7E7E7F7F7F7F7F80808080E2
:1053E000818181818182828282828283838383839D
:1053F0008384848484848484858585858585858566
:105400008585858585858585868686868585858548
:105410008585858585858585858585858484848440
:10542000848484848483838383838383828282824B
:1054300082828181818181818080808080807F7F64
:105440007F7F7F7F7F7E7E7E7E7E7E7E7D7D7D7D7B
:105450007D7D7D7D7D7C7C7C7C7C7C7C7C7C7C7C87
:105460007C7C7C7C7C7C7C7C7C7C7C7C7C7C7C7C7C
:105470007C7C7C7C7C7C7C7C7C7C7D7D7D7D7D7D66
:105480007D7D7D7D7D7E7E7E7E7E7E7E7E7F7F7F3E
:105490007F7F7F7F7F80808080808080808181810E
:1054A00081818181818282828282828282828282E1
:1054B00083838383838383838383838383838383BC
:1054C00083838383838383838383838383838383AC
:1054D00083838383838383838383828282828282A2
:1054E00082828282828281818181818181818181A6
:1054F00081808080808080808080807F7F7F7F7FB0
:105500007F7F7F7F7F7F7F7E7E7E7E7E7E7E7E7EB4
:105510007E7E7E7E7E7E7E7E7E7E7E7E7D7D7D7DAF
:105520007D7D7D7D7D7D7D7D7D7D7E7E7E7E7E7EA5
:105530007E7E7E7E7E7E7E7E7E7E7E7E7E7E7E7F8A
:105540007F7F7F7F7F7F7F7F7F7F7F7F7F80808068
:105550008080808080808080808081818181818145
:105560008181818181818181818181828282828226
:10557000828282828282828282828282828282820B
:1055800082828282828282828282828282828282FB
:1055900082828282828181818181818181818181F6
:1055A00081818181818181818080808080808080F3
:1055B0008080808080808080807F7F7F7F7F7F7FF2
:1055C0007F7F7F7F7F7F7F7F7F7F7F7F7F7F7F7FEB
:1055D0007F7F7F7E7E7E7E7E7E7E7E7E7E7E7E7EE8
:1055E0007E7E7E7E7E7E7F7F7F7F7F7F7F7F7F7FD1
:1055F0007F7F7F7F7F7F7F7F7F7F7F7F7F7F7F7FBB
:105600007F7F7F808080808080808080808080809D
:105610008080808080808080808181818181818183
:10562000818181818181818181818181818181816A
:10563000818181818181818181818181818181815A
:10564000818181818181818181818181818181814A
:10565000818181818181818181818181808080803E
:10566000808080808080808080808080808080803A
:105670008080808080808080807F7F7F7F7F7F7F31
:105680007F7F7F7F7F7F7F7F7F7F7F7F7F7F7F7F2A
:105690007F7F7F7F7F7F7F7F7F7F7F7F7F7F7F7F1A
:1056A0007F7F7F7F7F7F7F7F7F7F7F7F7F7F7F7F0A
:1056B0007F7F7F7F808080808080808080808080EE
:1056C00080808080808080808080808080808080DA
:1056D00080808080808080808080808080818181C7
:1056E00081818181818181818181818181818181AA
:1056F000818181818181818181818181818181819A
:10570000818181818181818181818180808080808E
:105710008080808080808080808080808080808089
:105720008080808080808080808080808080808079
:105730008080808080808080808080808080808069
:105740008080808080807F7F7F7F7F7F7F7F7F7F63
:105750007F7F7F7F7F7F7F7F7F7F80808080808053
:105760008080808080808080808080808080808039
:105770008080808080808080808080808080808029
:105780008080808080808080808080808080808019
:105790008080808080808080808080808080808009
:105AD000808080808080808080808080808065332E
:105AE00011241FBECFEFD8E0DEBFCDBF11E0A0E094
:105AF000B1E0E4E3F7E602C005900D92AE31B107E4
:105B0000D9F722E0AEE1B1E001C01D92A93FB20792
:105B1000E1F71DE2C0E7DDE204C02197FE010E942B
:105B20009233CF36D107C9F70E94872F0C94983350
:105B30000C940000AF92BF92CF92DF92EF92FF924F
:105B40000F931F93CF93DF936C017B018B01040FA5
:105B5000151FEB015E01AE18BF08C017D10759F041
:105B60006991D601ED91FC910190F081E02DC60183
:105B70000995892B79F7C501DF91CF911F910F917D
:105B8000FF90EF90DF90CF90BF90AF900895FC0111
:105B9000538D448D252F30E0842F90E0821B930B92
:105BA000541710F0CF96089501970895FC01918D38
:105BB000828D981761F0A28DAE0FBF2FB11D5D963B
:105BC0008C91928D9F5F9F73928F90E008958FEFDD
:105BD0009FEF0895FC01918D828D981731F0828D91
:105BE000E80FF11D858D90E008958FEF9FEF0895E8
:105BF000FC01918D228D892F90E0805C9F4F821B4C
:105C000091098F73992708958CE592E00E94F82DF1
:105C100021E0892B09F420E0822F089580E090E0B4
:105C2000892B29F00E94042E81110C940000089504
:105C3000FC01A48DA80FB92FB11DA35ABF4F2C9101
:105C4000848D90E001968F739927848FA689B789F8
:105C50002C93A089B1898C91837080648C93938DEF
:105C6000848D981306C00288F389E02D80818F7D92
:105C700080830895EF92FF920F931F93CF93DF934A
:105C8000EC0181E0888F9B8D8C8D98131AC0E88978
:105C9000F989808185FF15C09FB7F894EE89FF8947
:105CA0006083E889F98980818370806480839FBFE5
:105CB00081E090E0DF91CF911F910F91FF90EF90E5
:105CC0000895F62E0B8D10E00F5F1F4F0F731127F5
:105CD000E02E8C8D8E110CC00FB607FCFACFE88930
:105CE000F989808185FFF5CFCE010E94182EF1CF72
:105CF000EB8DEC0FFD2FF11DE35AFF4FF0829FB7A4
:105D0000F8940B8FEA89FB8980818062CFCFCF9393
:105D1000DF93EC01888D8823B9F0AA89BB89E889D3
:105D2000F9898C9185FD03C0808186FD0DC00FB679
:105D300007FCF7CF8C9185FFF2CF808185FFEDCFF7
:105D4000CE010E94182EE9CFDF91CF910895CF9315
:105D5000DF93FC0101900020E9F73197AF01481B68
:105D6000590BBC018CE592E00E949A2DEC0142E0B7
:105D700050E06AE171E08CE592E00E949A2D8C0F70
:105D80009D1FDF91CF9108951F920F920FB60F9232
:105D900011242F933F938F939F93AF93BF93809141
:105DA000580290915902A0915A02B0915B02309131
:105DB000570220E4230F2D3728F023EC230F019600
:105DC000A11DB11D20935702809358029093590250
:105DD000A0935A02B0935B028091530290915402B7
:105DE000A0915502B09156020196A11DB11D80935C
:105DF000530290935402A0935502B0935602BF9160
:105E0000AF919F918F913F912F910F900FBE0F9067
:105E10001F9018951F920F920FB60F9211242F9377
:105E20003F934F935F936F937F938F939F93AF9322
:105E3000BF93EF93FF938CE592E00E94182EFF91A1
:105E4000EF91BF91AF919F918F917F916F915F91F2
:105E50004F913F912F910F900FBE0F901F9018956B
:105E60001F920F920FB60F9211242F938F939F932F
:105E7000EF93FF93E0916C02F0916D028081E091CD
:105E80007202F091730282FD1BC0908180917502B5
:105E90008F5F8F7320917602821741F0E091750237
:105EA000F0E0E45AFD4F958F80937502FF91EF91DA
:105EB0009F918F912F910F900FBE0F901F9018956B
:105EC0008081F4CF1F920F920FB60F9211248F93FF
:105ED000EF93FF9380915202882389F0E0911E0195
:105EE00081E08E0F80931E01F0E0E95DFE4F80811E
:105EF0008093B30080915202815080935202FF91AF
:105F0000EF918F910F900FBE0F901F901895CF9328
:105F1000DF93CDB7DEB72A970FB6F894DEBF0FBE7A
:105F2000CDBF8091F20080618EBB80E88093F2004B
:105F30009EB39093F2008093610091E09093610092
:105F40009091F2009F799EBB8093F2009EB3909354
:105F5000F2009091F2009B7F9EBB8093F2009EB373
:105F60009093F2008093610010926100789484B560
:105F7000826084BD84B5816084BD85B5826085BD45
:105F800085B5816085BD80916E00816080936E00D3
:105F900010928100809181008260809381008091C5
:105FA0008100816080938100809180008160809376
:105FB00080008091B10084608093B1008091B00036
:105FC00081608093B0008091910082608093910005
:105FD0008091910081608093910080919000816018
:105FE0008093900080917A00846080937A00809101
:105FF0007A008D7F80937A0080917A008E7F8093E3
:106000007A0080917A00806880937A001092C100B3
:106010008FEF8093660028E131E0A2E1B1E010E863
:106020005FEF03E06D91862F90E0FC01E455FF4F98
:10603000449180579F4FFC018491643009F0ABC2BA
:106040000093A0008823C9F090E0880F991FFC01FD
:10605000EC57FF4F65917491FC01E858FF4F859113
:106060009491FFB6F894FB01E0804095E422E08231
:10607000FC01608146234083FFBE2A173B0791F64F
:10608000E7EBF0E02491EBE9F0E08491882399F0CC
:1060900090E0880F991FFC01EC57FF4FA591B49138
:1060A000FC01E858FF4F859194918FB7F894EC91DB
:1060B000E22BEC938FBFF89480918100877E8860FB
:1060C00080938100809180008C7F809380008091FC
:1060D0008100887F81608093810080916F00826061
:1060E00080936F0080E991E090938900809388000D
:1060F0008091B6008F798093B6008091B000836064
:106100008093B0008091B100877F8093B10080912F
:10611000B0008F7B80688093B0008091B0008F7C4E
:106120008093B0008091B100887F81608093B1003E
:1061300080E88093B30014BC15BC16BC8FEF87BDFC
:1061400084B5826084BD85B5856085BD10926E0082
:1061500080917A00887F80937A0080917A008760AE
:1061600080937A0080E480937C0080917A00806440
:1061700080937A00789498EF292E99E0392E2EE6B4
:10618000422E552453943BED632E3BE0732E45E0A5
:10619000842E982C6AE171E005ED11E0B3E0EB2E5E
:1061A000B3E1FB2E84EFC82E8BE1D82E40E050E007
:1061B000809152028F3F09F45DC1109251021092FA
:1061C000500220914E0230914F0280914C029091EA
:1061D0004D0228173907A0F4E0914B02E45EE7FD79
:1061E000EEC1E0934B02E0914E02F0914F02E65275
:1061F000F24BE491E058FF0BF0935102E093500210
:106200002091490230914A028091470290914802C0
:1062100028173907D0F4E0914602E45EE7FDDEC1BD
:10622000E0934602E0914902F0914A02EE51FC4BA4
:10623000E491E058FF0B8091500290915102E80FD9
:10624000F91FF0935102E0935002209144023091E3
:106250004502809142029091430228173907D0F4F9
:10626000E0914102E45EE7FDC8C1E0934102E091A4
:106270004402F0914502E35FFD4BE491E058FF0BCF
:106280008091500290915102E80FF91FF093510252
:10629000E093500220913F023091400280913D02F4
:1062A00090913E0228173907D0F4E0913C02E45E59
:1062B000E7FDB2C1E0933C02E0913F02F091400261
:1062C000E85FF24CE491E058FF0B8091500290910E
:1062D0005102E80FF91FF0935102E0935002209110
:1062E0003A0230913B02809138029091390228178E
:1062F0003907D0F4E0913702E45EE7FD9CC1E093FA
:106300003702E0913A02F0913B02E656F44CE491F8
:10631000E058FF0B8091500290915102E80FF91F55
:10632000F0935102E09350022091350230913602F1
:10633000809133029091340228173907D0F4E0910C
:106340003202E45EE7FD86C1E0933202E09135025D
:10635000F0913602E154F04DE491E058FF0B80914A
:10636000500290915102E80FF91FF0935102E0930F
:106370005002209130023091310280912E02909192
:106380002F0228173907D0F4E0912D02E45EE7FDD3
:1063900070C1E0932D02E0913002F0913102E5539B
:1063A000FC4EE491E058FF0B809150029091510215
:1063B000E80FF91FF0935102E093500220912B0255
:1063C00030912C028091290290912A0228173907D6
:1063D000D0F4E0912802E45EE7FD5AC1E093280280
:1063E000E0912B02F0912C02E853FF4FE491E0582A
:1063F000FF0B8091500290915102E80FF91FF0932A
:106400005102E093500280915002909151029C0100
:106410003595279530935102209350021A9908C060
:106420009595879595958795909351028093500205
:10643000809150029091510280589F4F8F3F91055B
:1064400011F00CF034C19093510280935002F894F3
:1064500080912702E82FF0E0E95DFE4F9091500215
:1064600090838F5F80932702809152028F5F809389
:10647000520278949E012F5F3F4FAFE1B1E0E2E11D
:10648000F1E0FA87E987E985FA85A190FA87E9873B
:10649000FDE0FA1508F00EC186B190E0E2EFBE2EE5
:1064A000AB0C02C095958795AA94E2F7817090E0B5
:1064B00019F09C91F1E09F27F90191939F018D9331
:1064C00089859A8568177907F1F68981882351F0C3
:1064D00010924F0210924E02E4E0FDE0F0934D0264
:1064E000E0934C028A81882341F010924A02109274
:1064F000490230924802209247028B81882341F062
:1065000010923B0210923A025092390240923802A5
:106510008C81882341F010923602109235027092DD
:106520003402609233028D81882341F01092400240
:1065300010923F0290923E0280923D028E8188230B
:1065400041F01092450210924402109343020093CE
:1065500042028F81882341F010922C0210922B026C
:10656000F0922A02E09229028885882341F0109255
:10657000310210923002D0922F02C0922E024115A9
:10658000510509F415CE0E94042E882309F402CE89
:106590000E940000FFCD9AEE960F923018F454BF7F
:1065A00054BF50CD693109F04DCD9091F00092600B
:1065B0009EBB1093F0009EB39093F00043CDEF7715
:1065C000E0934B022F5F3F4F30934F0220934E02D8
:1065D000019790934D0280934C0205CEEF77E093A4
:1065E00046022F5F3F4F30934A02209349020197A2
:1065F000909348028093470215CEEF77E0934102D3
:106600002F5F3F4F309345022093440201979093B0
:106610004302809342022BCEEF77E0933C022F5F40
:106620003F4F3093400220933F02019790933E02E8
:1066300080933D0241CEEF77E09337022F5F3F4FCB
:1066400030933B0220933A02019790933902809352
:10665000380257CEEF77E09332022F5F3F4F3093EF
:1066600036022093350201979093340280933302CF
:106670006DCEEF77E0932D022F5F3F4F30933102C5
:1066800020933002019790932F0280932E0283CEA5
:10669000EF77E09328022F5F3F4F30932C02209337
:1066A0002B02019790932A028093290299CE8FEFB3
:1066B00090E0C9CE87E08A1528F483B190E0E8EF36
:1066C000AE0EEFCE89B190E0ECCEECE5F2E01382B5
:1066D000128288EE93E0A0E0B0E084839583A683E5
:1066E000B78384E091E09183808385EC90E0958787
:1066F000848784EC90E09787868780EC90E0918B8C
:10670000808B81EC90E0938B828B82EC90E0958B78
:10671000848B86EC90E0978B868B118E128E138E75
:10672000148E0895EE0FFF1F0590F491E02D09944B
:04673000F894FFCF0B
:10673400000000003A2E9A2DC72D872EF82DD62D55
:0E674400EA2D02030405060708090D0A0000ED
:00000001FF
